:10000000ABC00000C8C00000C6C00000C4C00000F3
:10001000C2C00000C0C00000BEC00000BCC00000E4
:10002000BAC00000B8C00000B6C00000B4C00000F4
:10003000B2C00000B0C00000AEC00000ACC0000004
:10004000AAC00000A8C00000A6C00000A4C0000014
:10005000A2C00000A0C000009EC000009CC0000024
:100060009AC0000098C0000096C0000094C0000034
:1000700092C0000090C000008EC000008CC0000044
:100080008AC0000088C0000086C0000084C0000054
:1000900082C0000080C000007EC000007CC0000064
:1000A0007AC0000078C0000076C0000074C0000074
:1000B00072C0000070C000006EC000006CC0000084
:1000C0006AC0000068C0000066C0000064C0000094
:1000D00062C0000060C000005EC000005CC00000A4
:1000E0005AC00000EB02F402FC020B031A032D03BA
:1000F0006A038E03AC03280441045004B904540479
:10010000B904B904B904B904B904B904B904B90407
:10011000B904B904B9045C04B904B904B904B90454
:10012000B904B904B904B904B904B904B904B904E7
:10013000B904B904B904B904B904B904B904B904D7
:10014000B904B904B904B904B904B904B904B904C7
:10015000B904B90460046A0411241FBECFEFD1E2D0
:10016000DEBFCDBF00E00CBF13E0A0E0B2E0E2EEE6
:10017000FAE000E00BBF02C007900D92A439B1076E
:10018000D9F725E0A4E9B3E001C01D92AA3AB2076D
:10019000E1F7C3D1A4C434CF9C0140E050E060E05B
:1001A00074E284EF90E01ED4DA01C901689412F879
:1001B000B695A795979587951694D1F79C012150F0
:1001C00031093093C5002093C40082E08093C000C1
:1001D00086E08093C20088E18093C10008959C016D
:1001E00040E050E060E074E284EF90E0FBD3DA019D
:1001F000C901689412F8B695A795979587951694B6
:10020000D1F79C01215031093093D5002093D400BF
:1002100082E08093D00086E08093D20088E18093D2
:10022000D1000895CF93DF93EC012881222389F038
:1002300030E0E0ECF0E046EC50E0908195FFFDCF3F
:10024000DA012C933F5FDE01A30FB11D2C91211128
:10025000F4CFDF91CF910895CF93DF93BC019C0140
:10026000FC018491882399F040E0A0ECB0E0C6EC5A
:10027000D0E09C9195FFFDCFF901249128834F5F39
:100280009B01240F311DF90194919111F2CFDF915F
:10029000CF910895CF93DF93BC019C01FC01849121
:1002A000882399F040E0A0EDB0E0C6EDD0E09C914D
:1002B00095FFFDCFF901249128834F5F9B01240F07
:1002C000311DF90194919111F2CFDF91CF910895F1
:1002D000E0ECF0E0908195FFFDCF8093C60008959B
:1002E000EF92FF920F931F93CF93DF938C0160E106
:1002F00077E265D3F62EE72E80E3860FE9DFCAE0CA
:10030000D0E08F2D9E2DBE015AD3805DE1DFC80164
:1003100068EE73E054D3CB01BE0151D3805DD8DFCA
:10032000C80164E670E04BD3CB01BE0148D3805DC9
:10033000CFDFC801BE0143D3182FCB01BE013FD38D
:10034000805DC6DF80E3810FC3DFDF91CF911F9116
:100350000F91FF90EF900895E0EDF0E0908195FF10
:10036000FDCF8093D6000895EF92FF921F93CF9315
:10037000DF93CDB7DEB72E970FB6F894DEBF0FBE72
:10038000CDBF2AE0AE014F5F5F4F6AD3CE01019629
:100390007C0110E01F5FF70181917F0190E042DF57
:1003A0001730C1F780E092E03DDF87E090E01F5F0B
:1003B000E1E0F0E0EC0FFD1FE80FF91F808190E015
:1003C00031DF812F90E08E3091058CF32E960FB6A1
:1003D000F894DEBF0FBECDBFDF91CF911F91FF908C
:1003E000EF900895CF93C82F803118F482E092E007
:1003F00019DF8C2F90E030DFCF910895CF92DF92FC
:10040000EF92FF920F931F93CF93DF93C82F7B013F
:1004100085EBA2DF82E6A0DFCC23B1F08701C150DB
:10042000CC2ED12C8FEFC81AD80ACE0CDF1CF12CA1
:10043000C0E0F801D1918F018D2F8EDFCD0FFC0E22
:100440000C151D05B1F702C0F12CC0E08C2F84DF24
:100450008F2D82DFDF91CF911F910F91FF90EF9051
:10046000DF90CF900895CF93DF93CDB7DEB7279776
:100470000FB6F894DEBF0FBECDBF6130A9F496E091
:10048000998391E09A8323E02B831C829D838E8342
:100490009F8387E090E09093A2038093A103BE0125
:1004A0006F5F7F4FABDF14C096E0998391E09A8332
:1004B00023E02B831C829D838E831F8287E090E044
:1004C0009093A2038093A103BE016F5F7F4F96DFDD
:1004D00027960FB6F894DEBF0FBECDBFDF91CF9148
:1004E000089580E895E258DE80E096E978DE61E0E4
:1004F00082E0B9DF60E082E3B6DF60E082E1B3DF93
:1005000060E083E0B0DF61E086E0ADDF60E084E0E2
:10051000AADF60E081E3A7CF089580E884B92F982F
:100520002FEF83ED90E3215080409040E1F700C031
:1005300000002F9AEFEFF3ED20E3E150F040204070
:10054000E1F700C000002F988FEF93EDE0E38150BA
:100550009040E040E1F700C00000C3DF84E092E09B
:1005600061DE10929F030F2EF0EDEF2EF12CF02D97
:1005700006ED10E0AA24A394B12CD2E00F2EF5EAE8
:100580008F2EF3E09F2EF02D0F2EF7E04F2EF02D43
:100590000F2EF5E05F2EF02D6894662462F80F2E82
:1005A000F3E07F2EF02D33243394F7018081F8019E
:1005B000C08180919F0390E093DE83E592E032DE7C
:1005C000E0919F03F0E0E930F10578F78827EE58D5
:1005D000FF4F8F4F29C21092A9051092A805C53B65
:1005E00021F730929F03E1CFC23619F4D0939F03D5
:1005F000DCCF10929F03D9CFC093A7058091A805A7
:10060000C80FC093A8058091A905C80FC093A9057C
:1006100070929F03CACFC093A0038091A805C80F12
:10062000C093A8058091A905C80FC093A905609241
:100630009F03BBCF8C2F90E090939D0380939C03EE
:100640008091A805C80FC093A8058091A905C80F7F
:10065000C093A90550929F03A8CF80919C039091CD
:100660009D033EDE83E592E0DDDDCC2ED12CC6017C
:1006700037DE83E592E0D6DD9C2D882720919C0310
:1006800030919D03822B932B90939D0380939C0329
:1006900027DE83E592E0C6DD8091A805C80FC093F0
:1006A000A8058091A905C80FC093A9051092A403BD
:1006B0001092A30380919F038F5F80939F0380918B
:1006C0009C0390919D038130924008F46ECF10926C
:1006D0009F036BCF8091A3039091A4039C012F5F94
:1006E0003F4F3093A4032093A303FC01EB55FC4F31
:1006F000C0838091A805C80FC093A8058091A90563
:10070000C80FC093A90580919C0390919D03281761
:10071000390708F44ACF40929F0347CFC093A505FD
:1007200082E292E07FDD8091A50590E0D9DD8DE247
:1007300092E078DD8091A80590E0D2DD87E392E039
:1007400071DD80919C0390919D03CADD80919F0390
:100750008F5F80939F0329CFC0939E0383E492E031
:1007600061DD82E292E05EDD8091A50590E0B8DD7A
:100770008DE292E057DD8091A80590E0B1DD87E33E
:1007800092E050DD80919C0390919D03A9DD86E568
:1007900092E048DD8091A90590E0A2DD8FE592E02E
:1007A00041DD80919E0390E09BDDB0929503A09285
:1007B0009403D093A70589E692E034DD80919403F9
:1007C000909195038DDD83E792E02CDD8091A70564
:1007D00090E086DD83E592E025DD809194039091A1
:1007E0009503019709F0E8C08091A705813021F0B9
:1007F000853009F4C4C0E0C0F40180819181A281F8
:10080000B381409196035091970360919803709142
:100810009903481759076A077B0741F080939603AD
:1008200090939703A0939803B09399038CE792E079
:1008300013DD9091A003492F50E0FA013297E13384
:10084000F10508F096C08827E558FF4F8F4FECC0A0
:1008500081E892E0E7DCF40164817581868197810B
:1008600083DD83E592E0DEDC8CE892E0DBDCF40102
:10087000608571858285938577DD83E592E0D2DCA2
:100880007AC086E992E0CEDCF401848190E0E4DC79
:10089000F401858181FF6FC088EA92E0C3DC6BC000
:1008A00082EB92E0BFDC67C082EC92E0BBDCF4013B
:1008B000808D918DD1DC5FC08EEC92E0CDDC5BC091
:1008C00080EE92E0AFDC8FEE92E0ACDC8BEF92E05A
:1008D000A9DC51C086E093E0A5DCF401848187386F
:1008E00041F08A3851F0853861F485E193E09ADC73
:1008F0000AC082E293E096DC06C08CE293E092DCD0
:1009000002C090E08FDCF4018581813041F018F065
:10091000823049F00CC085E393E084DC0AC08EE3AA
:1009200093E080DC06C080E593E07CDC02C090E0D0
:1009300079DC82E693E090DCF4018681813051F02D
:1009400028F0823059F0803169F010C08BE693E0D6
:1009500069DC11C080E793E065DC0DC086E793E0B9
:1009600061DC09C08BE793E05DDC05C090E05ADCF8
:1009700002C0892F37DD8FE793E08CDC1DC082E851
:1009800093E06ADC8091A003882319F0813029F07C
:1009900007C087E893E060DC03C08DE893E05CDC8F
:1009A000F40180811FDD80E893E056DCF401818151
:1009B00019DD8FE793E050DC10929F03F6CD97FB93
:1009C000072E16F4009406D077FD08D035D007FC2A
:1009D00005D03EF4909581959F4F0895709561954F
:1009E0007F4F0895A1E21A2EAA1BBB1BFD010DC06B
:1009F000AA1FBB1FEE1FFF1FA217B307E407F507CF
:100A000020F0A21BB30BE40BF50B661F771F881FAA
:100A1000991F1A9469F760957095809590959B0140
:100A2000AC01BD01CF010895EE0FFF1F881F8BBFE2
:100A30000790F691E02D1994AA1BBB1B51E107C04A
:100A4000AA1FBB1FA617B70710F0A61BB70B881F5E
:100A5000991F5A95A9F780959095BC01CD010895ED
:100A6000BB272A3051F4992342F4BDE2909580953A
:100A7000709561957F4F8F4F9F4F01C0BB27FA0143
:100A8000A62F6217710581059105330B30FB66F0C7
:100A9000AA27660F771F881F991FAA1FA21710F099
:100AA000A21B63953850A9F7A05DAA3308F0A95D91
:100AB000A19336F7B111B1931082CA0100C0DC01D5
:100AC000FC01672F71917723E1F7329704C07C9185
:100AD0006D9370836291AE17BF07C8F30895F894C1
:020AE000FFCF46
:100AE2002E0030002061636162612044452054453C
:100AF200524D494E415220454C2053455455500DBC
:100B02000A000D0A202063686B313A20000D0A208A
:100B120020636B313A20000D0A206C656E676874A1
:100B22003A2000454E54524F20414C2043415345F8
:100B32002038200D0A000D0A20636B323A20000D86
:100B42000A2063686B323A20000D0A4348454F4B36
:100B52003A20000D0A434F44453A20004E41562D9B
:100B6200004C4F4E47495455443A20004C41544999
:100B72005455443A20005354415455533A20677017
:100B820073466978203D20002C20646770734669A3
:100B92007800444F503A2020202067444F50203D97
:100BA2002000505245434953494F4E3A2000564582
:100BB2004C4E45443A20675370656564203D2000E1
:100BC200444750533A202020616765203D20002C85
:100BD20020626173654964203D20002C206E756D92
:100BE2004368203D2000534241533A20202067654C
:100BF2006F203D2000496E6D61727361742034462E
:100C0200330047616C61787920313500416E696B40
:100C1200204631520064697361626C656400656EDE
:100C220061626C656420696E7465677269747900CB
:100C3200656E61626C65642074657374206D6F64A7
:100C420065002C20737973203D20005741415300E9
:100C520045474E4F53004D53415300475053000AEE
:100C6200200041434B2D004E414B3A200041434B63
:040C72003A20000024
:00000001FF
